:020000040800F2
:1000000080070020290200087F160008011500085B
:100010007D1600083B040008591800080000000085
:100020000000000000000000000000003D17000874
:10003000B90400080000000081160008B11700088C
:10004000430200084302000843020008430200087C
:10005000430200084302000843020008430200086C
:10006000430200084302000843020008430200085C
:10007000430200084302000843020008430200084C
:100080004302000843020008430200084904000834
:100090003D04000843020008430200084302000830
:1000A000430200084302000843020008430200081C
:1000B000430200084302000843020008430200080C
:1000C00043020008430200084302000843020008FC
:1000D00043020008430200084302000843020008EC
:1000E00043020008430200084302000843020008DC
:1000F00043020008430200084302000843020008CC
:1001000043020008430200084302000843020008BB
:1001100043020008430200084302000843020008AB
:10012000430200084302000843020008430200089B
:10013000430200084302000843020008430200088B
:100140008D0400084302000843020008430200082F
:10015000430200084302000843020008430200086B
:10016000430200084302000843020008430200085B
:100170004302000843020008430200080000000098
:10018000430200084302000800F002F800F03CF8C7
:100190000AA090E8000C82448344AAF10107DA45E2
:1001A00001D100F031F8AFF2090EBAE80F0013F0F8
:1001B000010F18BFFB1A43F001031847F424000095
:1001C00014250000103A24BF78C878C1FAD8520725
:1001D00024BF30C830C144BF04680C6070470000C1
:1001E0000023002400250026103A28BF78C1FBD840
:1001F000520728BF30C148BF0B6070471FB502F0DF
:10020000A9F91FBD10B510BD00F0E2F81146FFF7C7
:10021000F5FF02F0C5F800F000F903B4FFF7F2FFB4
:1002200003BC00F003F90000094880470948004773
:10023000FEE7FEE7FEE7FEE7FEE7FEE7FEE7FEE796
:10024000FEE7FEE704480549054A064B70470000F3
:10025000491800088901000880010020800700205B
:10026000800300208003002053EA020C00F0698024
:100270002DE9F04B4FF00006002B1FBFB3FA83F5BA
:1002800003FA05F424FA05F65E4012BF1643B2FAEB
:1002900082F502FA05F4C5F120051EBF22FA05FC1D
:1002A00044EA0C04203556EA044C4FEA144418BFC3
:1002B000641C4FF000084FF00009904271EB030CF2
:1002C00039D3002919BFB1FA81F701FA07F6B0FA5C
:1002D00080F700FA07F6C7F120071EBF20FA07FCD7
:1002E00046EA0C062037B6FBF4FCA7EB0507103FE7
:1002F00007F01F0BCBF120060CFA0BFB2CFA06F6CD
:1003000044BFB3460026202FA4BF5E464FF0000B2B
:100310005BEA060C08BF4FF0010B19EB0B09ABFBB6
:10032000027C48EB0608C01B06FB02CC0BFB03CC8F
:1003300071EB0C01C1E70B46024641464846BDE859
:10034000F08B13B54FF000004FF00001AFF30080C9
:10035000BDE81C4070474FF0000200B513469446BC
:100360009646203922BFA0E80C50A0E80C50B1F10D
:100370002001BFF4F7AF090728BFA0E80C5048BF21
:100380000CC05DF804EB890028BF40F8042B08BFBF
:10039000704748BF20F8022B11F0804F18BF00F8BB
:1003A000012B704770477047704710B500F008F890
:1003B000006810BD10B5044600F002F8046010BDDE
:1003C00000487047200100200048704720010020AD
:1003D0007546FFF7F9FFAE4605006946534620F023
:1003E0000700854618B020B5FFF72CFFBDE8204078
:1003F0004FF000064FF000074FF000084FF0000BE1
:1004000021F00701AC46ACE8C009ACE8C009ACE893
:10041000C009ACE8C0098D46704710B50446AFF37B
:1004200000802046BDE81040FFF7F7BE01491820C4
:10043000ABBEFEE7260002007047FEE7014800F071
:10044000B0B900008000002010B50D4800F0A9F9F7
:100450000C490868401C086004280FDA0A4A00EBBF
:10046000400102EB810032F82110D0ED020A90ED3C
:10047000010ABDE81040024801F004B910BD0000B7
:10048000800000203C000020F0000020014800F027
:1004900088B90000A800002000B587B000910021B5
:1004A0000291CDE90313034B694600F01AF807B037
:1004B00000BD000008000020704772B6FEE790F80B
:1004C0002020012A07D0022A05D0416A41F4802168
:1004D000416201207047006842690A43426100207E
:1004E0007047F0B590F820500468A468012D05D03D
:1004F000022D03D0416A41F4802153E014F0406F93
:1005000001D1E5004BD5C4F30164022C03D9416A43
:1005100041F4000146E00125A5401D608D684FF4BF
:10052000C0739DB1CE6835434E6845EAC60506687E
:1005300003EB0417F5514FF4C275076805EB04157A
:100540000E697E51097D012905D009E00E88CD682C
:1005500045EA4655EBE701684E5946F480764E5120
:100560001179D2F805504FF4C67641EA05250168A5
:1005700006EB04168D511178D2F801204FF4C475A2
:1005800041EA0221026805EB04155151006803EBB2
:100590000411425842F0010242500020F0BD416A6D
:1005A00041F4001141620120F0BD000010B590F847
:1005B0002020012A07D0022A05D0416A41F4802177
:1005C0004162012010BD3B48D0F8002242F00102F8
:1005D000C0F80022D0F8002222F47C52C0F8002299
:1005E000D0F800224B6A42EA0322C0F800220A7DBA
:1005F00002F01F0301229A40D0F81C329343C0F846
:100600001C32CB69B3B9D0F80C329343C0F80C322A
:100610008C894B6864F31F434C6900EBC404C4F835
:1006200040320C890B6864F31F434C6900EBC4042F
:10063000C4F84432CB69012B16D1D0F80C321343E5
:10064000C0F80C320C884B6864F31F434C6900EB14
:10065000C404C4F840320C89CB6864F31F434C696E
:1006600000EBC404C4F844328B69002BD0F8043288
:100670000ED01343C0F804320B69002BD0F81432AB
:1006800008D01343C0F81432096A012904D008E0E5
:100690009343EFE79343F5E7D0F81C121143C0F8FA
:1006A0001C12D0F8001221F00101C0F80012002045
:1006B00010BD000000640040704730B590F8204045
:1006C000012C05D0022C03D0416A41F480215DE069
:1006D0000468002955D02469A40754D04FF4D87475
:1006E000056804EB01142D5915F0040595600568A3
:1006F0002D594ED0ED08556005682C5904F00204C0
:10070000D4604FF4DA74056804EB01142D5905F038
:100710000F05156105682D59C5F307259561056815
:100720002C59240C54614FF4DC72046802EB011262
:10073000A4581C700468A458240A5C700468A45867
:10074000240C9C700468A258120EDA704FF4DE720A
:10075000046802EB0112A4581C710468A458240A0E
:100760005C710468A458240C9C710468A258120E91
:10077000DA71006881B1016941F020010161002056
:1007800030BDE468A8E7416A41F4001141620120EC
:1007900030BD6D0D1560AFE7C16841F02001C1604B
:1007A000EDE72DE9F05F0546006800244669D0F8C2
:1007B00004908768D0F80CB0D0F810A0D0F818805A
:1007C000F10748D0F90714D001218160B80703D59B
:1007D000284600F058FA0CE0780702D54FF4006480
:1007E00007E0380702D54FF4805402E0284600F0B5
:1007F00049FAF80516D529684FF480708860B80565
:1008000003D5284600F041FA0CE0780502D544F4FF
:10081000005407E0380502D544F4804402E028463D
:1008200000F032FAF80316D529684FF4803088605A
:10083000B80303D5284600F02AFA0CE0780302D565
:1008400044F4004407E0380302D544F4803402E065
:10085000284600F01BFA300707D55FEACB6004D5C5
:100860002968102044F40074C86070074FF008072E
:1008700007D55FEA0B7004D52868C760284600F0EA
:10088000A3F9B00706D52868C068800702D02846BB
:1008900000F09CF9700607D55FEACA6004D52968A4
:1008A000102044F480640861B00607D55FEA0A703E
:1008B00004D528680761284600F0B4F9F00606D58B
:1008C00028680069800702D0284600F0ACF9B00320
:1008D00008D55FEAC96005D5296810204860284618
:1008E00000F0A2F9F00307D55FEA097004D5286883
:1008F0004760284600F0CCF9300446D55FEA4970DD
:1009000040D5F00504D55FEAC87001D044F0010479
:10091000B00504D55FEA887001D544F00204700583
:1009200004D55FEA487001D544F00404300529D5A8
:1009300018F0700F26D008F07000402815D006DCA3
:10094000102809D020280AD0302816D10AE05028D3
:100950000ED0602811D10EE044F008040DE044F000
:1009600010040AE044F0200407E044F0400404E0EE
:1009700044F0800401E044F480742868816921F027
:1009800070018161296804204860002C05D0686AE4
:10099000204368622846FFF78FFEBDE8F09F70B5E0
:1009A000040003D094F8200010B104E0012070BDD1
:1009B000204600F081F82068016841F001010160E3
:1009C00000F06AFA0546052604E000F065FA401BCF
:1009D0000A2811D820684068C007F6D0206801684E
:1009E00021F00201016000F057FA05460BE000F02B
:1009F00053FA401B0A2806D9606A40F4003060624E
:100A000084F82060D2E7206840688007EFD4207E19
:100A10000128206801683DD021F080010160607EDE
:100A200001282068016838D021F040010160A07ED3
:100A300001282068016833D021F020010160E07EA8
:100A40000128206801682ED041F010010160207F4C
:100A500001282068016829D021F008010160607F29
:100A600001282068016824D021F004010160D4E944
:100A700002010843D4E90412114308436168491E86
:100A800008432168C86100206062012084F82000CA
:100A9000002070BD41F08001C0E741F04001C5E792
:100AA00041F02001CAE721F01001CFE741F0080131
:100AB000D4E741F00401D9E7F0B587B0044614212A
:100AC0006846FFF748FC3B4B3B48DFF8E4E05968D9
:100AD000D4F800C0384A0225032609271030002424
:100AE000491CF4452CD15960012907D1016841F016
:100AF00000710160006800F000700590106840F01F
:100B000001001060106802AB00F0010005904FF486
:100B1000C050CDE9000583E8D0006946274800F0C1
:100B2000B9F800221146132000F024FA132000F037
:100B300013FA00221146142000F01CFA142033E0AE
:100B4000DFF87CE0F44531D1D0F800C04CF0806C87
:100B5000C0F800C0D0F800C001290CF0806CCDF8BE
:100B600014C0596007D1016841F00071016000684C
:100B700000F000700590106840F0020010601068EE
:100B800002AB00F0020005904FF44050CDE90005A3
:100B900083E8D00069460B4800F07CF8002211463B
:100BA000402000F0E7F9402000F0D6F907B0F0BD92
:100BB0000064004000000020303802400000024085
:100BC00000680040000402407047000010B5044671
:100BD000114B124A0021FFF770FDB8B91048007898
:100BE000012813D10D4920681C31096888420DD1B4
:100BF0000949094A0C390878401C08700749204601
:100C000001F06EFB02212046FFF759FC2068416984
:100C100041F00201416110BD0C0000206400002081
:100C20005C000020704770477047000070B50446B4
:100C300090F82000012804D0606A40F4002060622F
:100C400018E0022084F820002068016821F00101EA
:100C5000016000F021F905460EE000BF00F01CF92C
:100C6000401B0A2808D9606A40F400306062052001
:100C700084F82000012070BD20684068C007EDD1D5
:100C8000606270BD7047704770477047704770472B
:100C9000704700002DE9F84FDFF8BCA100220125C4
:100CA00003264FF00F090AF1040BAAF1040E00BF4E
:100CB0000B6805FA02F42340A34270D10F7907F0C4
:100CC0000307012F01D0022F16D187684FEA42088F
:100CD00006FA08FC27EA0C07D1F80CC00CFA08FC4D
:100CE0004CEA070CC0F808C04768A7430C79C4F366
:100CF000001494403C4344600C79E443A4070AD0B8
:100D0000C4684FEA420C06FA0CF7BC438F6807FA36
:100D10000CF72743C7600C7904F00304022C12D1AE
:100D2000D40800EB840CDCF820405707FF0E09FACA
:100D300007F824EA0804D1F8108008FA07F848EA0E
:100D40000408CCF8208004684FEA420C06FA0CF73D
:100D5000BC430F7907F0030707FA0CF72743076036
:100D60004C6814F4403F70D03C4C276847F48047EF
:100D70002760246822F0030704F480440094384C70
:100D800007EB040CDCF8084897074FEA177809FAD4
:100D900008F7BC43334FB84202D1002724E054E0A7
:100DA000314FB84201D101271EE0304FB84201D186
:100DB000022719E02E4FB84201D1032714E02D4F2E
:100DC000B84201D104270FE02B4FB84201D10527CB
:100DD0000AE02A4FB84201D1062705E0284FB84261
:100DE00001D1072700E0082707FA08F72743CCF8C6
:100DF0000878DAF800405746D1F804C09C435FEA0F
:100E0000CC2C00D51C433C60DBF800405F46D1F899
:100E100004C09C435FEA8C2C00D51C433C60DEF888
:100E200000407746D1F804C09C435FEA8C3C00D573
:100E30001C433C60084F083F3C68D1F804C09C4309
:100E40005FEACC3C00D51C433C60521C102AFFF4E6
:100E50002FAFBDE8F88F0000083C01404438024045
:100E6000003001400000024000040240000802403F
:100E7000000C024000100240001402400018024022
:100E8000001C02400069084000D0012070470AB1F0
:100E9000816170470904FBE70148806870470000E2
:100EA0001400002002488168027811448160704774
:100EB000140000200B4810B5016841F40071016076
:100EC000016841F480610160016841F48071016052
:100ED000032000F06FF80F2000F006F800F024F86F
:100EE000002010BD003C024070B50D4D04464FF48B
:100EF0007A712878B1FBF0F00A490968B1FBF0F08B
:100F000000F0EAFA48B9102C07D200222146501E00
:100F100000F030F800206C6070BD012070BD000052
:100F200014000020200000200A4808B5016841F4A0
:100F300080410160006800F4804000900548001F77
:100F4000016841F080510160006800F0805000901D
:100F500008BD000044380240002809DB00F01F02F1
:100F6000012191404009800000F1E020C0F800110B
:100F700070470000F0B40E4B1B680C46C3F302230D
:100F8000C3F10705042D00D90425191D072901D235
:100F9000002300E0DB1E012606FA05F1491E214070
:100FA00099409E40761E16403143F0BC00F068BC6C
:100FB0000CED00E0064900F0070208684FF6FF0359
:100FC000184040EA0220034A1043086070470000BE
:100FD0000CED00E00000FA052DE9F0470E46050093
:100FE00065D0DFF81481D8F80000F7B200F00700F0
:100FF000B04207D288F80070D8F8000000F007006F
:10100000B04254D128683D4C810712D5400703D522
:10101000206840F4E05020602878000703D520685D
:1010200040F4604020602068A96820F0F000084388
:1010300020602878C0072DD0304968680839012819
:1010400012D0022813D0032811D00968890700297B
:101050002DDA216821F0030101432160FFF71CFF15
:10106000814641F2883A0EE009688903EFE7096892
:101070008901ECE7FFF710FFA0EB0901514502D908
:101080000320BDE8F0872068696800F00C00B0EB31
:10109000810FEFD1D8F80010404601F00701B142AE
:1010A00007D90770006800F00700B04201D00120A6
:1010B000E7E72878400705D52068E96820F4E05084
:1010C000084320602878000706D52068296920F4A5
:1010D000604040EAC100206000F018F82168084A2A
:1010E000C1F30311515CC840064908600648006816
:1010F000FFF7FAFE0020C4E7003C02400838024037
:101100005E2500082000002018000020154810B5BA
:10111000006810F00C02144813D04110042A0FD0BC
:10112000082A0ED10F4C241F2268236802F03F02C8
:101130005B0207D52068C0F38810A0FB010106E020
:10114000084610BD2168C1F38811A1FB00010023EE
:10115000FFF78AF82168C1F30141491C4900B0FB3F
:10116000F1F010BD083802400024F4002DE9F84FDA
:1011700004006ED02078DFF84C93C007A9F1040575
:101180004AD009F104000168C1F38101012908D0A6
:101190000068C0F3810002280AD1D9F8000040029B
:1011A00006D52868800337D560680028E1D033E091
:1011B0006068B0F5803F10D0B0F5A02F286810D03F
:1011C00020F480302860286820F48020286060683F
:1011D000A8B1FFF761FE06460DE0286840F48030B4
:1011E000F4E740F480202860F7E700BFFFF754FEE3
:1011F000801B642873D828688003F7D50CE0FFF7BC
:101200004BFE064605E000BFFFF746FE801B642844
:10121000F0D828688003F7D42078DFF8AC82800704
:101220004FF0000A3ED5A748001D016811F00C0FD1
:1012300008D00068C0F3810002280BD1D9F8000063
:10124000400207D42868800716D5E068012800D13D
:1012500012E033E1E068B8B10120C8F80000FFF700
:101260001BFE064605E000BFFFF716FE801B0228A6
:10127000C0D828688007F7D52868216920F0F800D1
:1012800040EAC10028600DE0C8F800A0FFF704FEA6
:10129000064604E0FFF700FE801B02281FD82868DE
:1012A0008007F7D42078000722D5864F87486169E8
:1012B000703771B101210160FFF7EEFD064604E0D1
:1012C000FFF7EAFD801B022809D838688007F7D5A8
:1012D0000EE0C0F800A0FFF7DFFD064605E082E063
:1012E000FFF7DAFD801B02287DD838688007F7D425
:1012F0002078400768D5DFF8CCB100270BF13C0B14
:10130000DBF80000C0000BD4DBF8001041F0805186
:10131000CBF80010DBF80000012700F080500090AF
:101320006B4E3068C00510D4306840F48070306077
:10133000FFF7B2FD009005E0FFF7AEFD0099401AFF
:10134000022850D83068C005F6D55E4EA0686C36CD
:1013500001280FD00528306810D020F0010030603F
:10136000306820F004003060A068B8B1FFF794FD49
:1013700000900FE0306840F00100F4E740F0040016
:101380003060F7E7FFF788FD0099411A41F2883095
:10139000814266D830688007F4D50EE0FFF77CFD07
:1013A000009007E0FFF778FD0099411A41F288307C
:1013B000814256D830688007F4D42FB1DBF8001092
:1013C00021F08051CBF80010A069C8B33D49091D38
:1013D0000968C1F3810102294AD00228504607D08A
:1013E000C8F8600000E03CE0FFF756FD04463BE033
:1013F0004746C8F86000FFF74FFD064605E000BF0E
:10140000FFF74AFD801B02282BD828688001F7D4FB
:10141000D4E907010843A16A2E4A490802EB0141B9
:10142000626A41EA8211084394F82C1040EA016193
:10143000C9F8001001203866FFF72EFD044606E0CB
:101440003EE000BFFFF728FD001B022809D82868EE
:101450008001F7D534E000BFFFF71EFD001B022816
:1014600002D90320BDE8F88F28688001F4D427E072
:101470000128F7D0D9F80000E26900F48001914218
:101480001CD1226A00F03F01914217D147F6C0718A
:10149000626A0140B1EB821F10D1A26A4FF0FF33A4
:1014A00000F4403103EB5202B1EB024F06D194F845
:1014B0002C1000F07060B0EB016F01D00120D1E77B
:1014C0000020CFE70438024000004742800E474228
:1014D000007000400000FFFF10B5401EB0F1807F9B
:1014E00001D3012010BD4FF0E02460610F2160178F
:1014F00000F0C6F90020A06107202061002010BD87
:10150000FEE7000030B51F488BB01D490160072180
:101510000024C0E901144FF48021C0E903414FF4D5
:10152000A00141610476012545768476C57604776D
:101530004577FFF734FA08B1FEF7BFFF03940E209A
:101540000494CDE90850CDE9064505940094019432
:10155000029469460B48FFF729F808B1FEF7ADFF82
:101560000848FFF763FB08B1FEF7A7FF0221054813
:10157000FEF7A5FF002801D0FEF79FFF0BB030BD9E
:10158000006400408000002030B51F488BB01D492A
:10159000016007210024C0E901144FF48021C0E953
:1015A00003414FF4A001416104760125457684761C
:1015B000C57604774577FFF7F2F908B1FEF77DFFAE
:1015C00005A90E2081E8310003940494CDE9085068
:1015D00000940194029469460B48FEF7E7FF08B1B6
:1015E000FEF76BFF0848FFF721FB08B1FEF765FF28
:1015F00002210548FEF763FF002801D0FEF75DFFDA
:101600000BB030BD00680040A800002000B587B0D6
:1016100014216846FEF79FFE16480021026842F03A
:1016200004020260026802F004020592026842F0BD
:1016300080020260026802F080020592026842F0B5
:1016400002020260026802F002020592026842F0A1
:1016500001020260006800F0010005904FF40040B4
:10166000CDE900010220029069460348FFF712FB12
:1016700007B000BD3038024000080240FEE7FEE738
:101680007047000010B516480C462DED028B82B055
:10169000B0EE608A80ED030A80ED048A00F032FD2E
:1016A0009FED100A0021009128EE000A8DF800003D
:1016B000000A8DF80100BDEEC00A0191082310EE6A
:1016C000100A6A468DF80200000A8DF803002146D0
:1016D0000548FEF7E1FE02B0BDEC028B10BD000034
:1016E0004800002000007A44800000201CB5124A07
:1016F00082ED030ABDEEC00AC2ED040A10EE102A04
:10170000BDEEE00A8DF80020120A10EE103A8DF8B6
:1017100001208DF8043000221B0A8DF805308DF869
:1017200002208DF806208DF803208DF8072008236D
:101730006A46FEF7B1FE1CBD48000020704700005D
:101740002DE9F04118490446A1F1100000F01CFDFC
:10175000154B164E0021A3F1100503F1100200BF36
:1017600001EB410036F8117022F8207005EB81077B
:1017700002EB800097ED000A03EB810780ED010A80
:1017800097ED000A491C80ED020A0429E8DB0749AD
:101790000020091F0860101D118890EC020A2046E5
:1017A000BDE8F041FFF7A2BFE000002040000020AC
:1017B000FFF778BB30B593B030216846FEF7CBFD1C
:1017C00014210CA8FEF7C7FD1D480025016841F053
:1017D00080510160006800F0805011901948016844
:1017E00041F4804101600068022400F480401190BF
:1017F00001200090000401908001CDE9064008AA74
:101800000420A82182E813000B906846FFF7AEFC85
:1018100008B172B6FEE70CA90F2081E831004FF441
:10182000A0500F904FF48050109005210CA8FFF7A6
:10183000D3FB002801D072B6FEE713B030BD000024
:1018400040380240007000400248016841F47001D5
:101850000160704788ED00E0FEE74100080218BF14
:1018600004200A0E18BF40F001004FF07F4232EA18
:10187000010108BF40F00200012808BF05207047A1
:101880000907090E002804DB00F1E02080F80014AD
:10189000704700F00F0000F1E02080F8141D704741
:1018A00010B54FF00E412DED028BB0EE408A18EED0
:1018B000100A01EB4001B1F1145F5CD24FF0FE4120
:1018C000B1EB400F24BF9FED400AF0EE400A12D268
:1018D00010F0004F19BFDFED3D0A9FED3D0ADFED2F
:1018E0003D0A9FED3D0AFFEE001A81EE881AB0EE28
:1018F000418A18EE100A4FF0FC41B1EB400F1BD2A9
:1019000010F0004FDFED351A9FED352A1DBFBEEEFA
:10191000001A70EEE10A30EE420AB6EE001A04BF79
:1019200070EEA10A30EE020A38EE412AF7EE001AF4
:1019300048EE011A82EE218ADFED2A1A9FED2A2A4B
:1019400028EE081A01EE212ADFED281A41EE021ACC
:101950009FED272A01EE212ADFED261A41EE021A19
:1019600028EE011A01EE210A30EE080ABDEC028BC6
:1019700030EE200A10BD4FF0E441B1EB400F0CD91E
:1019800018EE100AFFF769FF042808BF00F0B2FB49
:10199000B0EE480ABDEC028B10BD4FF07F41B1EBB9
:1019A000400F07D2B0EE480ABDEC028BBDE81040F4
:1019B00000F08ABB10F0004F14BF9FED0F0A9FED9F
:1019C0000F0ABDEC028B10BD000000000000C9BF73
:1019D00022AAFDB90000C93F22AAFD390060ED3EF0
:1019E000C30ACE372DAD65BD8FB8D53D0FB511BE3D
:1019F00061C84C3EA8AAAABEDB0FC9BFDB0FC93F16
:101A00002DED020B019820F0004001909DED000BA0
:101A100002B0704710B510EE100A2DED068BB7EE30
:101A2000001A10EE901AB0EE418A0022A0F5000CC8
:101A3000DFEDFE9A4FF00073BCF1FE4F4FF07F4494
:101A400003EB410C80F0B481BCF1804FC0F02082E8
:101A5000F74901449FEDF73AB1F5005F40F2D482B7
:101A600000F58021CB0C03F00F0101EE901AC3F3B7
:101A700007137F3BA0EBC350B8EEE12A00EE100A3B
:101A80001A44DFEDED2AF0EE411A42EE221AF0EE92
:101A9000613A70EE232A30EE632A12EE900A00F5C6
:101AA00000606FF30B0001EE900A73EEE13A33EE43
:101AB000804AC1EE223A22EE230A10EE100A00F507
:101AC00000606FF30B0000EE100A00EE612A00EEDA
:101AD000442A62EE232A70EE221A21EEA12ADFEDBB
:101AE000D73A02EE233A23EE023A20EE012A22EE02
:101AF000811A03EE211A32EE010A10EE100A00F5E7
:101B000000606FF30B0000EE100A72EE401A31EE27
:101B1000812A9FEDCB1A60EE011A9FEDCA1A20EEC2
:101B2000011A9FEDC90A02EE001A31EE810A10EE89
:101B3000100A00F500606FF30B0000EE100AC348B6
:101B400071EEC01A31EE812A784400EBC10090EDAD
:101B5000003AD0ED011A100101EE100AF8EEC12A88
:101B600032EE211A31EE001A31EE031A31EE221A4A
:101B700011EE100A00F500606FF30B0009EE100A79
:101B800039EE621A31EE431A31EE400A30EE610A44
:101B900032EE40AA10EE900A002100F500606FF3CB
:101BA0000B0008EE900A084670EEE8AA4FF000001D
:101BB00029EE280A00F00C01F0EEC00A10EE900A9F
:101BC000B0F18B4F0DDD10EE900AB4EB400F08D34F
:101BD00010EE100A4FF08B4262F31E0008EE900ADE
:101BE00013E069EE2A0A38EEAA1A4AEE010A30EE2C
:101BF000201A11EE100A00F500606FF30B0008EEDA
:101C0000900A30EE680A70EE209A0C204FF0000027
:101C100038EEA90AB5EEC00AF1EE10FA34BFFEEEB6
:101C2000000AF6EE000A30EE800ABDEEC00A10EEA1
:101C3000100A011100EE101AF8EEC00A00EE100AA8
:101C4000B8EEC00A38EEC00A30EE290ADFED801A7D
:101C50009FED801A00EE211ADFED7F1A7F4900F018
:101C60000F0040EE011A21EE800A794401EB800159
:101C700091ED001A7A49794401EB8001D1ED001A07
:101C8000784901EE801A794401EB8000764990EDA5
:101C9000000A31EE001AB0EEE00A10EE100A884297
:101CA00015DA10EE100AB4EB400F10D39FED6F0A57
:101CB00030EE800ADFED6E0A20EE200A68EE010A9F
:101CC000BDEC068BBCEEC00A20EE200A10BD10EE63
:101CD000100A6849884243DA10EE100AB4EB400F4C
:101CE0003ED3BDEEE00A68EE010A10EE100A00EBEA
:101CF000D0725110C90501F17E5100EE101AA0EB0F
:101D00006200C00560EE200A00F17E5000EE100A6D
:101D100060EE808A18EE900AB4EB400F0FD10220DB
:101D2000FEF748FB00F0DEF910EE101A18EE100A6C
:101D3000BDEC068B61F31E0000EE100A10BD18EE1C
:101D4000900A400011D018EE900AFFF786FD042893
:101D500008BF00F0CFF9B0EE680ABDEC068B10BDED
:101D6000F5EEC00AF1EE10FA0FD20220FEF722FBC8
:101D700000F0C0F910EE101A18EE100ABDEC068B38
:101D800061F31E0000EE100A10BD0220FEF712FBE8
:101D900000F0A8F910EE101AB0EE480A10EE100A82
:101DA000BDEC068B61F31E0000EE100A10BD00BFF3
:101DB000BCF1804F6CD300BF00F1FF43B3F1FE4F85
:101DC00024D200BFB0EEC00A10EE100AC1F3C75310
:101DD0007F2B0DDB972BBFF63BAEC3F196034FF085
:101DE000010C0CFA03F3A3F1010C1CEA010F08D05B
:101DF0000120FEF7DFFABDEC068BBDE8104000F0D5
:101E000069B90B4218BFBFEE008A21E643001CBF30
:101E10004FF08073B3EB400F34D96FF01A02DFED4F
:101E2000161A20EE210A10EE100A27E0000000002A
:101E3000001080C0ABAAAA3E0000803D7EE24C3E6E
:101E400000B03842D49AB8BB3BAA3842240A0000FA
:101E5000FC596337C9FF753A1872313DC209000059
:101E6000F6090000660900000000FC420000FE4286
:101E70000000004B000040430000004D10F0004FF8
:101E8000A0D1E5E5A0F50003B3F1FE4F21D2DFE5D7
:101E900003EB4103B3F1007F11D3F5EEC00AF1EE7D
:101EA00010FA05D1430018BFB4EB400F76D883E792
:101EB00001F0004141F0FC5100EE901A7CE7B3F1D3
:101EC000807F06D210EE903AA3F5000300EE903A20
:101ED00072E720F000426FF0FF4C604C02EB0C0305
:101EE000A34210D321F000439C44A4450BD3B0F18E
:101EF0007E5F18BF5FEA410C50D0B2F1FF4F98BF30
:101F0000B3F1FF4F05D9BDEC068BBDE8104000F0E2
:101F1000DEB8B0F1FF4F0FD0C1F3C7527F2A09DB03
:101F2000972A11DAC2F19602012303FA02F2531E34
:101F30000B4205D0002208E011F0004F55D128E0F7
:101F40000A4218BF012200D1022210F5000F13D05F
:101F500028B3B0F1004F26D010F1814F4FD04FF091
:101F6000FE42B2EB400F94BF01200020012202EBA1
:101F7000E171884239D10CE011F0004F02D0012A02
:101F800038D032E0012A02BF9FED350ABDEC068B46
:101F900010BD9FED340ABDEC068B10BD2FE011F093
:101FA000004F0CD121E0B1F1FF4F1ED011F5000F11
:101FB00005D011F0004F15D00AB1012A08D0022037
:101FC000FEF7F8F9BDEC068BBDE8104000F072B8E2
:101FD0000220FEF7EFF900F06DF8BDEC068BB1EED4
:101FE000400A10BD0AB1012A04D0B0EE690ABDEC66
:101FF000068B10BDBDEC068B9FED1B0A10BDBDEC22
:10200000068BB7EE000A10BD30EE410AB5EE001A9D
:102010009FED172A00EE413AB6EE001A60EE001A64
:1020200000EE431A61EEC11A9FED101A20EE011A5C
:1020300020EE020A9FED0F2A01EE820A71EE001ACD
:1020400011EE900A00F500606FF30B0009EE100A24
:1020500031EE491A31EE00AA9CE50000FFFF3F0077
:10206000000080FF0000807F0000008000B0B841C9
:10207000D49A38BB3BAAB84110B52DED028BB1EE16
:10208000C08A18EE100A20F00040C0F1FF40C00FD7
:102090000AD010EE100A20F00040C0F1FF40C00F3F
:1020A00004BF0120FEF786F9B0EE480ABDEC028BB2
:1020B00010BD0000DFED030AB7EE001A81EE200A22
:1020C000704700000000000030EE000A704730EE5C
:1020D000200A7047DFED020A80EEA00A7047000078
:1020E000000000009FED020A20EE000A7047000089
:1020F000000000709FED020A20EE000A7047000009
:1021000000000010DFED1C0A1C4810B520EE200A6C
:10211000D0ED010A9FED1A1A1849B5EEC00A60EE1B
:10212000810A9FED181AB1F9004060EE011A81EEA4
:10213000A01AD0ED020A61EE200AFDEEE00A10EED0
:10214000900AF1EE10FA00B201DD20440FE0B5EE86
:10215000C00AF1EE10FA0CD200F097F941EC100B26
:10216000FFF74EFC51EC100B00F060F9201A00B2A2
:1021700010BD204610BD0000000070424800002045
:10218000D00F494000007A4470B5B0EE081A2DED2A
:102190000C8BB0EE60AA60EE810AB3EE0A9AB5EE3F
:1021A000C00AB0EE408AC0EE899A0C460546F1EEB0
:1021B00010FA02DBB7EE00CA01E0BFEE00CAB0EED3
:1021C000480ADFED46CAB6EE00BAF0EE000A6AEE43
:1021D0002CBA0BEECB0AF0EE40AAFFF71BFC6BEE1D
:1021E0008B8AB0EE40DAF0EE000AB0EE680AFFF734
:1021F00011FC3DEE000AFFF73FFF2CEE09CA60EE2E
:102200000C0A80EE890AF0EE000A30EE690A85EDCC
:10221000000AB0EE480A0BEE8B0AB0EE40BAFFF7A8
:10222000F9FBB0EE40DAB0EE680AF0EE000AFFF714
:10223000F1FB3DEE000AFFF71FFF60EE0C0A80EE97
:10224000890AF0EE000A30EE690A85ED010AB0EE67
:102250004B0AFFF7DFFBB0EE40BAB0EE680AF0EED3
:10226000000AFFF7D7FB3BEE000AFFF705FF60EE21
:102270000C0A80EE890AF0EE000A30EE290A85ED9C
:10228000020AB0EE6A0AFFF7C5FBF0EE40AAB0EE14
:10229000680AF0EE000AFFF7BDFB3AEE800AFFF78E
:1022A000EBFE20EE0C0AC0EE090A30EEA90A85ED1D
:1022B000030AB0EE000A68EE000A4AEE6C0A8BEEE2
:1022C000A00AFFF7EDFAF1EE400A84EC020A84ED71
:1022D000020AC4ED030ABDEC0C8B70BD33334341DD
:1022E00010B52DED028B0868A0F5806101394AD147
:1022F000B2F900109FED272A00EE101A2348DFEDF7
:10230000262AF8EEC00A9FED220A4180537860EE3B
:10231000800ADB090370C0EE821AC0ED021AB2F91E
:102320000210818000EE901AD378F8EEE00ADB0903
:10233000437020EE801AC1EE220AC0ED030A02D0DB
:10234000B7EE001A01E0BFEE001A80ED051AB2F9EF
:102350000410C18001EE101AB8EEC11A21EE000A75
:1023600080EE028A21EEA10A00EEA00A80ED048A26
:10237000FFF782FEF0EE480ABDEC028B0748BDE88D
:102380001040FFF7DDB9BDEC028B10BD240000202A
:102390000000C84200FEFF4600FEFFC6800000208D
:1023A000FEF788FDFFF706FAFFF730F9FFF7AAF806
:1023B000FFF7EAF801210348FEF781F800F004F87E
:1023C000FCE700008000002010B54FF400411448E5
:1023D000FEF758FD134CE0706178884202D0FEF79A
:1023E0005BFD6060FEF758FD6168401A1E2814D935
:1023F000E078A178884210D0A07001280DD1207813
:1024000028B100210848217019B1002202E0012101
:10241000F8E701222021FEF73AFDE078607010BD58
:10242000000802405C000020001002404FEA410317
:102430004FEA5353A3F58063D3F11E03C8BFD3F112
:10244000210C0CDD4FF0004242EAC12242EA505218
:1024500032FA03FC8CEAE17CACEBE1707047102BA4
:10246000C4BF0020704703F5787CBCF1FF3F04D067
:102470006FF0004282EA2100704770B500F01CF84E
:102480004992248000207047F2E710F0004248BFD4
:102490004042B0FA80F310FA03F10AD0C3F11D03F1
:1024A00003F580634FEA415002EB035202EBD12166
:1024B00070474FF0000070470EF1020E2EF0030E31
:1024C0005EF8046B364205D4012A43EB030515F58B
:1024D000001F12D8012841EB010C1CF5001F0CD87D
:1024E0000ED14FEAD17C15F5001F0CEB4C0C0CF112
:1024F000020C08BF4CEBD37C04E04FF0080C01E069
:102500004FEAD37C0CEB4C0526FA05F606F00706DD
:10251000B6F1040C06D20EEB860CBDE870404CF010
:10252000010C6047DFE80CF0090B02024FF000419C
:102530004FF00000A1F5002170BD1946104601289A
:1025400051EB010418BFD4F5001484BF002001F042
:10255000004170BD4FF04070E1EE100A704700007E
:102560000000000000000102030406070809000043
:1025700000000000000000000000B33FB2BE7D3A42
:1025800000002E40DFCF513800007E40BF51FABA24
:1025900000E0A44019DAC3BA00E0C840C2ED8AB92D
:1025A0000040EB40CD1F2CBA001006412AFFFABABA
:1025B00000C01541DFCFD13700D024419A97703A3F
:1025C0000050334189478E3600404141E75B9D38DA
:1025D00000B04E41C00A98B900A05B41558F943AB3
:1025E00000306841DA92C0BA0040744162B3C63A22
:1025F0000000803F00A0853F00908B3F00C0913FCE
:102600000030983F00F09E3F00F0A53F0050AD3FE6
:102610000000B53F0000BD3F0060C53F0020CE3F39
:102620000040D73F00C0E03F00C0EA3F0020F53F38
:10263000000000007D36AC397D3C3839EBDCF438E5
:10264000320A7E39124C26399B6AED39A4EE833961
:102650007F661E39F6398A392B426539A4821139D1
:102660005B991F39C3EECD39DDE7C637A5A22F39F7
:102670000000803FC3AA853FC2958B3FD3C3913FE3
:10268000F037983F32F59E3FD7FEA53F3F58AD3F0C
:10269000F304B53FA408BD3F2A67C53F8C24CE3F55
:1026A000FD44D73FDFCCE03FC7C0EA3F7D25F53F83
:1026B000D02600080000002064000000C4010008CB
:1026C00034270008640000201C070000E001000817
:1026D00000000000000000000000000000000000FA
:1026E00000000000010000001000000000000000D9
:1026F0000024F400000000000000000000000000C2
:1027000000000000000000000000000000000000C9
:102710002301240125012601983A00000000C84247
:102720000000803F000000000000000000000000EA
:0427300000000000A5
:040000050800018965
:00000001FF
